{
  "contractName": "ClickGame",
  "abi": [
    {
      "anonymous": false,
      "inputs": [
        {
          "indexed": true,
          "internalType": "address",
          "name": "player",
          "type": "address"
        },
        {
          "indexed": false,
          "internalType": "uint256",
          "name": "score",
          "type": "uint256"
        },
        {
          "indexed": false,
          "internalType": "uint256",
          "name": "position",
          "type": "uint256"
        }
      ],
      "name": "LeaderboardUpdated",
      "type": "event"
    },
    {
      "anonymous": false,
      "inputs": [
        {
          "indexed": true,
          "internalType": "address",
          "name": "player",
          "type": "address"
        },
        {
          "indexed": false,
          "internalType": "uint256",
          "name": "score",
          "type": "uint256"
        }
      ],
      "name": "NewHighScore",
      "type": "event"
    },
    {
      "inputs": [
        {
          "internalType": "address",
          "name": "",
          "type": "address"
        }
      ],
      "name": "highScores",
      "outputs": [
        {
          "internalType": "uint256",
          "name": "",
          "type": "uint256"
        }
      ],
      "stateMutability": "view",
      "type": "function",
      "constant": true
    },
    {
      "inputs": [
        {
          "internalType": "uint256",
          "name": "",
          "type": "uint256"
        }
      ],
      "name": "leaderboard",
      "outputs": [
        {
          "internalType": "uint256",
          "name": "highScore",
          "type": "uint256"
        },
        {
          "internalType": "address",
          "name": "wallet",
          "type": "address"
        }
      ],
      "stateMutability": "view",
      "type": "function",
      "constant": true
    },
    {
      "inputs": [
        {
          "internalType": "uint256",
          "name": "score",
          "type": "uint256"
        }
      ],
      "name": "updateHighScore",
      "outputs": [],
      "stateMutability": "nonpayable",
      "type": "function"
    },
    {
      "inputs": [],
      "name": "getLeaderboard",
      "outputs": [
        {
          "components": [
            {
              "internalType": "uint256",
              "name": "highScore",
              "type": "uint256"
            },
            {
              "internalType": "address",
              "name": "wallet",
              "type": "address"
            }
          ],
          "internalType": "struct ClickGame.Player[3]",
          "name": "",
          "type": "tuple[3]"
        }
      ],
      "stateMutability": "view",
      "type": "function",
      "constant": true
    }
  ],
  "bytecode": "0x608060405234801561001057600080fd5b50610a8f806100206000396000f3fe608060405234801561001057600080fd5b506004361061004b5760003560e01c8062d8e104146100505780634cd9673e146100805780636d763a6e1461009c578063bf368399146100ba575b600080fd5b61006a6004803603810190610065919061064b565b6100eb565b6040516100779190610818565b60405180910390f35b61009a60048036038101906100959190610674565b610103565b005b6100a46104c8565b6040516100b191906107dd565b60405180910390f35b6100d460048036038101906100cf9190610674565b61057a565b6040516100e2929190610833565b60405180910390f35b60006020528060005260406000206000915090505481565b6000803373ffffffffffffffffffffffffffffffffffffffff1673ffffffffffffffffffffffffffffffffffffffff168152602001908152602001600020548111610183576040517f08c379a000000000000000000000000000000000000000000000000000000000815260040161017a906107f8565b60405180910390fd5b806000803373ffffffffffffffffffffffffffffffffffffffff1673ffffffffffffffffffffffffffffffffffffffff168152602001908152602001600020819055503373ffffffffffffffffffffffffffffffffffffffff167fe265ae360c48dc3c258727b698cc5a994da69b0d32354166f39003a4889194438260405161020c9190610818565b60405180910390a260005b60038110156104c4576001816003811061025a577f4e487b7100000000000000000000000000000000000000000000000000000000600052603260045260246000fd5b60020201600001548211156104b1576000600160036102799190610919565b90505b8181111561039257600180826102929190610919565b600381106102c9577f4e487b7100000000000000000000000000000000000000000000000000000000600052603260045260246000fd5b6002020160018260038110610307577f4e487b7100000000000000000000000000000000000000000000000000000000600052603260045260246000fd5b60020201600082015481600001556001820160009054906101000a900473ffffffffffffffffffffffffffffffffffffffff168160010160006101000a81548173ffffffffffffffffffffffffffffffffffffffff021916908373ffffffffffffffffffffffffffffffffffffffff160217905550905050808061038a90610989565b91505061027c565b5060405180604001604052808381526020013373ffffffffffffffffffffffffffffffffffffffff16815250600182600381106103f8577f4e487b7100000000000000000000000000000000000000000000000000000000600052603260045260246000fd5b600202016000820151816000015560208201518160010160006101000a81548173ffffffffffffffffffffffffffffffffffffffff021916908373ffffffffffffffffffffffffffffffffffffffff1602179055509050503373ffffffffffffffffffffffffffffffffffffffff167f5c874adf9d1c93ab636130bb7e727993f1d6a3d33d1ffd925556815d0eec23088360018461049691906108c3565b6040516104a492919061085c565b60405180910390a26104c4565b80806104bc906109b3565b915050610217565b5050565b6104d06105c4565b6001600380602002604051908101604052809291906000905b8282101561057157838260020201604051806040016040529081600082015481526020016001820160009054906101000a900473ffffffffffffffffffffffffffffffffffffffff1673ffffffffffffffffffffffffffffffffffffffff1673ffffffffffffffffffffffffffffffffffffffff1681525050815260200190600101906104e9565b50505050905090565b6001816003811061058a57600080fd5b600202016000915090508060000154908060010160009054906101000a900473ffffffffffffffffffffffffffffffffffffffff16905082565b60405180606001604052806003905b6105db6105f1565b8152602001906001900390816105d35790505090565b604051806040016040528060008152602001600073ffffffffffffffffffffffffffffffffffffffff1681525090565b60008135905061063081610a2b565b92915050565b60008135905061064581610a42565b92915050565b60006020828403121561065d57600080fd5b600061066b84828501610621565b91505092915050565b60006020828403121561068657600080fd5b600061069484828501610636565b91505092915050565b60006106a98383610790565b60408301905092915050565b6106be8161094d565b82525050565b6106cd8161094d565b82525050565b6106dc8161088f565b6106e681846108a7565b92506106f182610885565b8060005b83811015610722578151610709878261069d565b96506107148361089a565b9250506001810190506106f5565b505050505050565b6000610737602f836108b2565b91507f53636f7265206973206e6f7420686967686572207468616e207468652063757260008301527f72656e7420686967682073636f726500000000000000000000000000000000006020830152604082019050919050565b6040820160008201516107a660008501826107bf565b5060208201516107b960208501826106b5565b50505050565b6107c88161097f565b82525050565b6107d78161097f565b82525050565b600060c0820190506107f260008301846106d3565b92915050565b600060208201905081810360008301526108118161072a565b9050919050565b600060208201905061082d60008301846107ce565b92915050565b600060408201905061084860008301856107ce565b61085560208301846106c4565b9392505050565b600060408201905061087160008301856107ce565b61087e60208301846107ce565b9392505050565b6000819050919050565b600060039050919050565b6000602082019050919050565b600081905092915050565b600082825260208201905092915050565b60006108ce8261097f565b91506108d98361097f565b9250827fffffffffffffffffffffffffffffffffffffffffffffffffffffffffffffffff0382111561090e5761090d6109fc565b5b828201905092915050565b60006109248261097f565b915061092f8361097f565b925082821015610942576109416109fc565b5b828203905092915050565b60006109588261095f565b9050919050565b600073ffffffffffffffffffffffffffffffffffffffff82169050919050565b6000819050919050565b60006109948261097f565b915060008214156109a8576109a76109fc565b5b600182039050919050565b60006109be8261097f565b91507fffffffffffffffffffffffffffffffffffffffffffffffffffffffffffffffff8214156109f1576109f06109fc565b5b600182019050919050565b7f4e487b7100000000000000000000000000000000000000000000000000000000600052601160045260246000fd5b610a348161094d565b8114610a3f57600080fd5b50565b610a4b8161097f565b8114610a5657600080fd5b5056fea2646970667358221220e7f6273cf304fc6c100b9ef895a55e69e801ccfd6664ffa8bf9adb4a8c01c12864736f6c63430008000033",
  "immutableReferences": {},
  "source": "// SPDX-License-Identifier: MIT\npragma solidity ^0.8.0;\n\ncontract ClickGame {\n    struct Player {\n        uint256 highScore;\n        address wallet;\n    }\n\n    mapping(address => uint256) public highScores;\n    Player[3] public leaderboard;\n\n    event NewHighScore(address indexed player, uint256 score);\n    event LeaderboardUpdated(address indexed player, uint256 score, uint256 position);\n\n    function updateHighScore(uint256 score) public {\n        require(score > highScores[msg.sender], \"Score is not higher than the current high score\");\n\n        highScores[msg.sender] = score;\n\n        emit NewHighScore(msg.sender, score);\n\n        // Check if the new score should be in the leaderboard\n        for (uint256 i = 0; i < leaderboard.length; i++) {\n            if (score > leaderboard[i].highScore) {\n                // Shift lower scores down the leaderboard\n                for (uint256 j = leaderboard.length - 1; j > i; j--) {\n                    leaderboard[j] = leaderboard[j - 1];\n                }\n                // Insert the new high score\n                leaderboard[i] = Player(score, msg.sender);\n                emit LeaderboardUpdated(msg.sender, score, i + 1);\n                break;\n            }\n        }\n    }\n\n    function getLeaderboard() public view returns (Player[3] memory) {\n        return leaderboard;\n    }\n}\n",
  "sourcePath": "/Users/chulahn/Documents/GitHub/BlockX/contracts/ClickGame.sol",
  "compiler": {
    "name": "solc",
    "version": "0.8.0+commit.c7dfd78e.Emscripten.clang"
  },
  "schemaVersion": "3.4.16",
  "updatedAt": "2024-07-28T10:55:38.633Z",
  "networkType": "ethereum",
  "devdoc": {
    "kind": "dev",
    "methods": {},
    "version": 1
  },
  "userdoc": {
    "kind": "user",
    "methods": {},
    "version": 1
  }
}