{
  "contractName": "OlympicClickathon",
  "abi": [
    {
      "inputs": [],
      "stateMutability": "nonpayable",
      "type": "constructor"
    },
    {
      "anonymous": false,
      "inputs": [
        {
          "indexed": true,
          "internalType": "address",
          "name": "user",
          "type": "address"
        },
        {
          "indexed": false,
          "internalType": "uint256",
          "name": "clicks",
          "type": "uint256"
        }
      ],
      "name": "Click",
      "type": "event"
    },
    {
      "anonymous": false,
      "inputs": [
        {
          "indexed": true,
          "internalType": "address",
          "name": "user",
          "type": "address"
        },
        {
          "indexed": false,
          "internalType": "string",
          "name": "gift",
          "type": "string"
        },
        {
          "indexed": false,
          "internalType": "uint256",
          "name": "value",
          "type": "uint256"
        }
      ],
      "name": "GiftPurchase",
      "type": "event"
    },
    {
      "anonymous": false,
      "inputs": [
        {
          "indexed": true,
          "internalType": "address",
          "name": "user",
          "type": "address"
        },
        {
          "indexed": false,
          "internalType": "uint256",
          "name": "score",
          "type": "uint256"
        }
      ],
      "name": "LeaderboardUpdated",
      "type": "event"
    },
    {
      "anonymous": false,
      "inputs": [
        {
          "indexed": true,
          "internalType": "address",
          "name": "user",
          "type": "address"
        },
        {
          "indexed": false,
          "internalType": "uint256",
          "name": "highScore",
          "type": "uint256"
        }
      ],
      "name": "NewHighScore",
      "type": "event"
    },
    {
      "anonymous": false,
      "inputs": [
        {
          "indexed": true,
          "internalType": "address",
          "name": "from",
          "type": "address"
        },
        {
          "indexed": true,
          "internalType": "address",
          "name": "to",
          "type": "address"
        },
        {
          "indexed": false,
          "internalType": "uint256",
          "name": "value",
          "type": "uint256"
        }
      ],
      "name": "Transfer",
      "type": "event"
    },
    {
      "inputs": [
        {
          "internalType": "address",
          "name": "",
          "type": "address"
        }
      ],
      "name": "balanceOf",
      "outputs": [
        {
          "internalType": "uint256",
          "name": "",
          "type": "uint256"
        }
      ],
      "stateMutability": "view",
      "type": "function",
      "constant": true
    },
    {
      "inputs": [
        {
          "internalType": "address",
          "name": "",
          "type": "address"
        }
      ],
      "name": "clicks",
      "outputs": [
        {
          "internalType": "uint256",
          "name": "",
          "type": "uint256"
        }
      ],
      "stateMutability": "view",
      "type": "function",
      "constant": true
    },
    {
      "inputs": [],
      "name": "decimals",
      "outputs": [
        {
          "internalType": "uint8",
          "name": "",
          "type": "uint8"
        }
      ],
      "stateMutability": "view",
      "type": "function",
      "constant": true
    },
    {
      "inputs": [
        {
          "internalType": "address",
          "name": "",
          "type": "address"
        }
      ],
      "name": "highScore",
      "outputs": [
        {
          "internalType": "uint256",
          "name": "",
          "type": "uint256"
        }
      ],
      "stateMutability": "view",
      "type": "function",
      "constant": true
    },
    {
      "inputs": [
        {
          "internalType": "uint256",
          "name": "",
          "type": "uint256"
        }
      ],
      "name": "leaderboard",
      "outputs": [
        {
          "internalType": "address",
          "name": "wallet",
          "type": "address"
        },
        {
          "internalType": "uint256",
          "name": "score",
          "type": "uint256"
        }
      ],
      "stateMutability": "view",
      "type": "function",
      "constant": true
    },
    {
      "inputs": [],
      "name": "name",
      "outputs": [
        {
          "internalType": "string",
          "name": "",
          "type": "string"
        }
      ],
      "stateMutability": "view",
      "type": "function",
      "constant": true
    },
    {
      "inputs": [],
      "name": "owner",
      "outputs": [
        {
          "internalType": "address",
          "name": "",
          "type": "address"
        }
      ],
      "stateMutability": "view",
      "type": "function",
      "constant": true
    },
    {
      "inputs": [],
      "name": "symbol",
      "outputs": [
        {
          "internalType": "string",
          "name": "",
          "type": "string"
        }
      ],
      "stateMutability": "view",
      "type": "function",
      "constant": true
    },
    {
      "inputs": [],
      "name": "totalSupply",
      "outputs": [
        {
          "internalType": "uint256",
          "name": "",
          "type": "uint256"
        }
      ],
      "stateMutability": "view",
      "type": "function",
      "constant": true
    },
    {
      "inputs": [],
      "name": "startClicking",
      "outputs": [],
      "stateMutability": "nonpayable",
      "type": "function"
    },
    {
      "inputs": [
        {
          "internalType": "uint256",
          "name": "clickCount",
          "type": "uint256"
        }
      ],
      "name": "endClicking",
      "outputs": [],
      "stateMutability": "nonpayable",
      "type": "function"
    },
    {
      "inputs": [],
      "name": "getLeaderboard",
      "outputs": [
        {
          "components": [
            {
              "internalType": "address",
              "name": "wallet",
              "type": "address"
            },
            {
              "internalType": "uint256",
              "name": "score",
              "type": "uint256"
            }
          ],
          "internalType": "struct OlympicClickathon.LeaderboardEntry[3]",
          "name": "",
          "type": "tuple[3]"
        }
      ],
      "stateMutability": "view",
      "type": "function",
      "constant": true
    },
    {
      "inputs": [
        {
          "internalType": "address",
          "name": "to",
          "type": "address"
        },
        {
          "internalType": "uint256",
          "name": "value",
          "type": "uint256"
        }
      ],
      "name": "transfer",
      "outputs": [
        {
          "internalType": "bool",
          "name": "",
          "type": "bool"
        }
      ],
      "stateMutability": "nonpayable",
      "type": "function"
    },
    {
      "inputs": [
        {
          "internalType": "string",
          "name": "gift",
          "type": "string"
        },
        {
          "internalType": "uint256",
          "name": "value",
          "type": "uint256"
        }
      ],
      "name": "purchaseGift",
      "outputs": [
        {
          "internalType": "bool",
          "name": "",
          "type": "bool"
        }
      ],
      "stateMutability": "nonpayable",
      "type": "function"
    }
  ],
  "bytecode": "0x60806040526040518060400160405280601881526020017f4f6c796d70696320436c69636b6174686f6e20546f6b656e00000000000000008152506000908051906020019062000051929190620001b0565b506040518060400160405280600381526020017f4f43540000000000000000000000000000000000000000000000000000000000815250600190805190602001906200009f929190620001b0565b506012600260006101000a81548160ff021916908360ff160217905550348015620000c957600080fd5b5033600460006101000a81548173ffffffffffffffffffffffffffffffffffffffff021916908373ffffffffffffffffffffffffffffffffffffffff160217905550600260009054906101000a900460ff1660ff16600a6200012c9190620002bb565b620f42406200013c9190620003f8565b600381905550600354600b6000600460009054906101000a900473ffffffffffffffffffffffffffffffffffffffff1673ffffffffffffffffffffffffffffffffffffffff1673ffffffffffffffffffffffffffffffffffffffff1681526020019081526020016000208190555062000504565b828054620001be9062000463565b90600052602060002090601f016020900481019282620001e257600085556200022e565b82601f10620001fd57805160ff19168380011785556200022e565b828001600101855582156200022e579182015b828111156200022d57825182559160200191906001019062000210565b5b5090506200023d919062000241565b5090565b5b808211156200025c57600081600090555060010162000242565b5090565b6000808291508390505b6001851115620002b2578086048111156200028a576200028962000499565b5b60018516156200029a5780820291505b8081029050620002aa85620004f7565b94506200026a565b94509492505050565b6000620002c88262000459565b9150620002d58362000459565b9250620003047fffffffffffffffffffffffffffffffffffffffffffffffffffffffffffffffff84846200030c565b905092915050565b6000826200031e5760019050620003f1565b816200032e5760009050620003f1565b8160018114620003475760028114620003525762000388565b6001915050620003f1565b60ff84111562000367576200036662000499565b5b8360020a91508482111562000381576200038062000499565b5b50620003f1565b5060208310610133831016604e8410600b8410161715620003c25782820a905083811115620003bc57620003bb62000499565b5b620003f1565b620003d1848484600162000260565b92509050818404811115620003eb57620003ea62000499565b5b81810290505b9392505050565b6000620004058262000459565b9150620004128362000459565b9250817fffffffffffffffffffffffffffffffffffffffffffffffffffffffffffffffff04831182151516156200044e576200044d62000499565b5b828202905092915050565b6000819050919050565b600060028204905060018216806200047c57607f821691505b60208210811415620004935762000492620004c8565b5b50919050565b7f4e487b7100000000000000000000000000000000000000000000000000000000600052601160045260246000fd5b7f4e487b7100000000000000000000000000000000000000000000000000000000600052602260045260246000fd5b60008160011c9050919050565b61177480620005146000396000f3fe608060405234801561001057600080fd5b50600436106100ea5760003560e01c806370a082311161008c578063a9059cbb11610066578063a9059cbb1461024f578063ba5bf0e71461027f578063bf368399146102af578063df92560f146102e0576100ea565b806370a08231146101e35780638da5cb5b1461021357806395d89b4114610231576100ea565b8063313ce567116100c8578063313ce5671461015b578063336b07541461017957806335a59a93146101a95780636d763a6e146101c5576100ea565b806306fdde03146100ef57806318160ddd1461010d5780631904bd391461012b575b600080fd5b6100f76102ea565b6040516101049190611182565b60405180910390f35b610115610378565b60405161012291906111f4565b60405180910390f35b61014560048036038101906101409190610eb5565b61037e565b60405161015291906111f4565b60405180910390f35b610163610396565b604051610170919061120f565b60405180910390f35b610193600480360381019061018e9190610f1a565b6103a9565b6040516101a09190611167565b60405180910390f35b6101c360048036038101906101be9190610f6e565b6104dd565b005b6101cd610758565b6040516101da919061114c565b60405180910390f35b6101fd60048036038101906101f89190610eb5565b61080a565b60405161020a91906111f4565b60405180910390f35b61021b610822565b6040516102289190611108565b60405180910390f35b610239610848565b6040516102469190611182565b60405180910390f35b61026960048036038101906102649190610ede565b6108d6565b6040516102769190611167565b60405180910390f35b61029960048036038101906102949190610eb5565b610a75565b6040516102a691906111f4565b60405180910390f35b6102c960048036038101906102c49190610f6e565b610a8d565b6040516102d7929190611123565b60405180910390f35b6102e8610ad7565b005b600080546102f7906115ea565b80601f0160208091040260200160405190810160405280929190818152602001828054610323906115ea565b80156103705780601f1061034557610100808354040283529160200191610370565b820191906000526020600020905b81548152906001019060200180831161035357829003601f168201915b505050505081565b60035481565b600c6020528060005260406000206000915090505481565b600260009054906101000a900460ff1681565b600081600b60003373ffffffffffffffffffffffffffffffffffffffff1673ffffffffffffffffffffffffffffffffffffffff16815260200190815260200160002054101561042d576040517f08c379a0000000000000000000000000000000000000000000000000000000008152600401610424906111d4565b60405180910390fd5b81600b60003373ffffffffffffffffffffffffffffffffffffffff1673ffffffffffffffffffffffffffffffffffffffff168152602001908152602001600020600082825461047c91906114f5565b925050819055503373ffffffffffffffffffffffffffffffffffffffff167f3a1b73ed994799af71a98fe88f4dc15836b67fc4a474da9d860583536ffe674284846040516104cb9291906111a4565b60405180910390a26001905092915050565b80600c60003373ffffffffffffffffffffffffffffffffffffffff1673ffffffffffffffffffffffffffffffffffffffff16815260200190815260200160002081905550600260009054906101000a900460ff1660ff16600a610540919061137d565b8161054b919061149b565b600b60003373ffffffffffffffffffffffffffffffffffffffff1673ffffffffffffffffffffffffffffffffffffffff168152602001908152602001600020600082825461059991906112d4565b92505081905550600260009054906101000a900460ff1660ff16600a6105bf919061137d565b816105ca919061149b565b600360008282546105db91906112d4565b92505081905550600d60003373ffffffffffffffffffffffffffffffffffffffff1673ffffffffffffffffffffffffffffffffffffffff168152602001908152602001600020548111156106c65780600d60003373ffffffffffffffffffffffffffffffffffffffff1673ffffffffffffffffffffffffffffffffffffffff168152602001908152602001600020819055506106773382610b1e565b3373ffffffffffffffffffffffffffffffffffffffff167fe265ae360c48dc3c258727b698cc5a994da69b0d32354166f39003a488919443826040516106bd91906111f4565b60405180910390a25b3373ffffffffffffffffffffffffffffffffffffffff16600073ffffffffffffffffffffffffffffffffffffffff167fddf252ad1be2c89b69c2b068fc378daa952ba7f163c4a11628f55a4df523b3ef600260009054906101000a900460ff1660ff16600a610735919061137d565b84610740919061149b565b60405161074d91906111f4565b60405180910390a350565b610760610dc6565b6005600380602002604051908101604052809291906000905b82821015610801578382600202016040518060400160405290816000820160009054906101000a900473ffffffffffffffffffffffffffffffffffffffff1673ffffffffffffffffffffffffffffffffffffffff1673ffffffffffffffffffffffffffffffffffffffff16815260200160018201548152505081526020019060010190610779565b50505050905090565b600b6020528060005260406000206000915090505481565b600460009054906101000a900473ffffffffffffffffffffffffffffffffffffffff1681565b60018054610855906115ea565b80601f0160208091040260200160405190810160405280929190818152602001828054610881906115ea565b80156108ce5780601f106108a3576101008083540402835291602001916108ce565b820191906000526020600020905b8154815290600101906020018083116108b157829003601f168201915b505050505081565b600081600b60003373ffffffffffffffffffffffffffffffffffffffff1673ffffffffffffffffffffffffffffffffffffffff16815260200190815260200160002054101561095a576040517f08c379a0000000000000000000000000000000000000000000000000000000008152600401610951906111d4565b60405180910390fd5b81600b60003373ffffffffffffffffffffffffffffffffffffffff1673ffffffffffffffffffffffffffffffffffffffff16815260200190815260200160002060008282546109a991906114f5565b9250508190555081600b60008573ffffffffffffffffffffffffffffffffffffffff1673ffffffffffffffffffffffffffffffffffffffff16815260200190815260200160002060008282546109ff91906112d4565b925050819055508273ffffffffffffffffffffffffffffffffffffffff163373ffffffffffffffffffffffffffffffffffffffff167fddf252ad1be2c89b69c2b068fc378daa952ba7f163c4a11628f55a4df523b3ef84604051610a6391906111f4565b60405180910390a36001905092915050565b600d6020528060005260406000206000915090505481565b60058160038110610a9d57600080fd5b600202016000915090508060000160009054906101000a900473ffffffffffffffffffffffffffffffffffffffff16908060010154905082565b6000600c60003373ffffffffffffffffffffffffffffffffffffffff1673ffffffffffffffffffffffffffffffffffffffff16815260200190815260200160002081905550565b60005b6003811015610dc15760058160038110610b64577f4e487b7100000000000000000000000000000000000000000000000000000000600052603260045260246000fd5b6002020160010154821115610dae57600060016003610b8391906114f5565b90505b81811115610c9d576005600182610b9d91906114f5565b60038110610bd4577f4e487b7100000000000000000000000000000000000000000000000000000000600052603260045260246000fd5b6002020160058260038110610c12577f4e487b7100000000000000000000000000000000000000000000000000000000600052603260045260246000fd5b600202016000820160009054906101000a900473ffffffffffffffffffffffffffffffffffffffff168160000160006101000a81548173ffffffffffffffffffffffffffffffffffffffff021916908373ffffffffffffffffffffffffffffffffffffffff160217905550600182015481600101559050508080610c95906115c0565b915050610b86565b5060405180604001604052808473ffffffffffffffffffffffffffffffffffffffff1681526020018381525060058260038110610d03577f4e487b7100000000000000000000000000000000000000000000000000000000600052603260045260246000fd5b6002020160008201518160000160006101000a81548173ffffffffffffffffffffffffffffffffffffffff021916908373ffffffffffffffffffffffffffffffffffffffff160217905550602082015181600101559050508273ffffffffffffffffffffffffffffffffffffffff167f24e225604268d6416871b32db1be8e49f497caf8360393b31d71a34a4ce2669383604051610da191906111f4565b60405180910390a2610dc1565b8080610db99061161c565b915050610b21565b505050565b60405180606001604052806003905b610ddd610df3565b815260200190600190039081610dd55790505090565b6040518060400160405280600073ffffffffffffffffffffffffffffffffffffffff168152602001600081525090565b6000610e36610e318461125b565b61122a565b905082815260208101848484011115610e4e57600080fd5b610e5984828561157e565b509392505050565b600081359050610e7081611710565b92915050565b600082601f830112610e8757600080fd5b8135610e97848260208601610e23565b91505092915050565b600081359050610eaf81611727565b92915050565b600060208284031215610ec757600080fd5b6000610ed584828501610e61565b91505092915050565b60008060408385031215610ef157600080fd5b6000610eff85828601610e61565b9250506020610f1085828601610ea0565b9150509250929050565b60008060408385031215610f2d57600080fd5b600083013567ffffffffffffffff811115610f4757600080fd5b610f5385828601610e76565b9250506020610f6485828601610ea0565b9150509250929050565b600060208284031215610f8057600080fd5b6000610f8e84828501610ea0565b91505092915050565b6000610fa383836110ac565b60408301905092915050565b610fb881611529565b82525050565b610fc781611529565b82525050565b610fd681611295565b610fe081846112b8565b9250610feb8261128b565b8060005b8381101561101c5781516110038782610f97565b965061100e836112ab565b925050600181019050610fef565b505050505050565b61102d8161153b565b82525050565b600061103e826112a0565b61104881856112c3565b935061105881856020860161158d565b611061816116f2565b840191505092915050565b60006110796014836112c3565b91507f496e73756666696369656e742062616c616e63650000000000000000000000006000830152602082019050919050565b6040820160008201516110c26000850182610faf565b5060208201516110d560208501826110db565b50505050565b6110e481611567565b82525050565b6110f381611567565b82525050565b61110281611571565b82525050565b600060208201905061111d6000830184610fbe565b92915050565b60006040820190506111386000830185610fbe565b61114560208301846110ea565b9392505050565b600060c0820190506111616000830184610fcd565b92915050565b600060208201905061117c6000830184611024565b92915050565b6000602082019050818103600083015261119c8184611033565b905092915050565b600060408201905081810360008301526111be8185611033565b90506111cd60208301846110ea565b9392505050565b600060208201905081810360008301526111ed8161106c565b9050919050565b600060208201905061120960008301846110ea565b92915050565b600060208201905061122460008301846110f9565b92915050565b6000604051905081810181811067ffffffffffffffff82111715611251576112506116c3565b5b8060405250919050565b600067ffffffffffffffff821115611276576112756116c3565b5b601f19601f8301169050602081019050919050565b6000819050919050565b600060039050919050565b600081519050919050565b6000602082019050919050565b600081905092915050565b600082825260208201905092915050565b60006112df82611567565b91506112ea83611567565b9250827fffffffffffffffffffffffffffffffffffffffffffffffffffffffffffffffff0382111561131f5761131e611665565b5b828201905092915050565b6000808291508390505b6001851115611374578086048111156113505761134f611665565b5b600185161561135f5780820291505b808102905061136d85611703565b9450611334565b94509492505050565b600061138882611567565b915061139383611567565b92506113c07fffffffffffffffffffffffffffffffffffffffffffffffffffffffffffffffff84846113c8565b905092915050565b6000826113d85760019050611494565b816113e65760009050611494565b81600181146113fc576002811461140657611435565b6001915050611494565b60ff84111561141857611417611665565b5b8360020a91508482111561142f5761142e611665565b5b50611494565b5060208310610133831016604e8410600b841016171561146a5782820a90508381111561146557611464611665565b5b611494565b611477848484600161132a565b9250905081840481111561148e5761148d611665565b5b81810290505b9392505050565b60006114a682611567565b91506114b183611567565b9250817fffffffffffffffffffffffffffffffffffffffffffffffffffffffffffffffff04831182151516156114ea576114e9611665565b5b828202905092915050565b600061150082611567565b915061150b83611567565b92508282101561151e5761151d611665565b5b828203905092915050565b600061153482611547565b9050919050565b60008115159050919050565b600073ffffffffffffffffffffffffffffffffffffffff82169050919050565b6000819050919050565b600060ff82169050919050565b82818337600083830152505050565b60005b838110156115ab578082015181840152602081019050611590565b838111156115ba576000848401525b50505050565b60006115cb82611567565b915060008214156115df576115de611665565b5b600182039050919050565b6000600282049050600182168061160257607f821691505b6020821081141561161657611615611694565b5b50919050565b600061162782611567565b91507fffffffffffffffffffffffffffffffffffffffffffffffffffffffffffffffff82141561165a57611659611665565b5b600182019050919050565b7f4e487b7100000000000000000000000000000000000000000000000000000000600052601160045260246000fd5b7f4e487b7100000000000000000000000000000000000000000000000000000000600052602260045260246000fd5b7f4e487b7100000000000000000000000000000000000000000000000000000000600052604160045260246000fd5b6000601f19601f8301169050919050565b60008160011c9050919050565b61171981611529565b811461172457600080fd5b50565b61173081611567565b811461173b57600080fd5b5056fea264697066735822122035e7d8d34b5f1feeb8512bfffe63e999267f989bb2b12771dc59303585d8662c64736f6c63430008000033",
  "immutableReferences": {},
  "source": "// SPDX-License-Identifier: MIT\npragma solidity ^0.8.0;\n\ncontract OlympicClickathon {\n    string public name = \"Olympic Clickathon Token\";\n    string public symbol = \"OCT\";\n    uint8 public decimals = 18;\n    uint256 public totalSupply;\n    address public owner;\n\n    struct LeaderboardEntry {\n        address wallet;\n        uint256 score;\n    }\n\n    LeaderboardEntry[3] public leaderboard;\n\n    mapping(address => uint256) public balanceOf;\n    mapping(address => uint256) public clicks;\n    mapping(address => uint256) public highScore;\n\n    event Transfer(address indexed from, address indexed to, uint256 value);\n    event Click(address indexed user, uint256 clicks);\n    event GiftPurchase(address indexed user, string gift, uint256 value);\n    event NewHighScore(address indexed user, uint256 highScore);\n    event LeaderboardUpdated(address indexed user, uint256 score);\n\n    constructor() {\n        owner = msg.sender;\n        totalSupply = 1000000 * (10**uint256(decimals));\n        balanceOf[owner] = totalSupply;\n    }\n\n    modifier onlyOwner() {\n        require(msg.sender == owner, \"Only contract owner can call this function\");\n        _;\n    }\n\n    function startClicking() public {\n        clicks[msg.sender] = 0; // reset clicks for the new session\n    }\n\n    function endClicking(uint256 clickCount) public {\n        clicks[msg.sender] = clickCount;\n        balanceOf[msg.sender] += clickCount * (10**uint256(decimals));\n        totalSupply += clickCount * (10**uint256(decimals));\n\n        if (clickCount > highScore[msg.sender]) {\n            highScore[msg.sender] = clickCount;\n            updateLeaderboard(msg.sender, clickCount);\n            emit NewHighScore(msg.sender, clickCount);\n        }\n\n        emit Transfer(address(0), msg.sender, clickCount * (10**uint256(decimals)));\n    }\n\n    function updateLeaderboard(address user, uint256 score) internal {\n        for (uint256 i = 0; i < leaderboard.length; i++) {\n            if (score > leaderboard[i].score) {\n                // Shift lower scores down the leaderboard\n                for (uint256 j = leaderboard.length - 1; j > i; j--) {\n                    leaderboard[j] = leaderboard[j - 1];\n                }\n                // Insert the new high score\n                leaderboard[i] = LeaderboardEntry(user, score);\n                emit LeaderboardUpdated(user, score);\n                break;\n            }\n        }\n    }\n\n    function getLeaderboard() public view returns (LeaderboardEntry[3] memory) {\n        return leaderboard;\n    }\n\n    function transfer(address to, uint256 value) public returns (bool) {\n        require(balanceOf[msg.sender] >= value, \"Insufficient balance\");\n        balanceOf[msg.sender] -= value;\n        balanceOf[to] += value;\n        emit Transfer(msg.sender, to, value);\n        return true;\n    }\n\n    function purchaseGift(string memory gift, uint256 value) public returns (bool) {\n        require(balanceOf[msg.sender] >= value, \"Insufficient balance\");\n        balanceOf[msg.sender] -= value;\n        emit GiftPurchase(msg.sender, gift, value);\n        return true;\n    }\n}",
  "sourcePath": "/Users/chulahn/Documents/GitHub/BlockX/contracts/OlympicClickathon.sol",
  "compiler": {
    "name": "solc",
    "version": "0.8.0+commit.c7dfd78e.Emscripten.clang"
  },
  "schemaVersion": "3.4.16",
  "updatedAt": "2024-07-28T10:58:20.746Z",
  "networkType": "ethereum",
  "devdoc": {
    "kind": "dev",
    "methods": {},
    "version": 1
  },
  "userdoc": {
    "kind": "user",
    "methods": {},
    "version": 1
  }
}